
+      0000            C0
:18180000F5C5D5E521000039227E1F3A721FE610CA43183E08D30CCD6B
:18181800BD19E68032791F211020226E1F210030226C1FAF32C9193AB7
:18183000721FD30C3A791FB7C291193E1132741FC39119003AC919B7E7
:18184800CA6718AF32C9193A791FB7C26718CDBD1932741FCDBD193275
:18186000751FE630C291193A721FE60F47FE0BC29118CDB1193A701F7F
:18187800E60FF6E0D30A2100290E10CDB1197ED30D230DC28318C39D66
:1818900018CDB1193A701FE68FF660D30ACDB1193A711FD30B78FE0269
:1818A800CAB018FE09C20C192A6E1FCDB1197CD30DCDB1197DD30D7892
:1818C000FE09CA0C19CDB1193E09D30CCDBD1932741FCDBD1932751F8C
:1818D800E630C291193A791FB7C2E9183EFF32C919CDB1193A701FE693
:1818F0008FF660D30A2A6E1FEB2A6C1FDB0B0FD2FC187ED30D231B7AD6
:18190800B3C2FC18CDB11978FE0A3A721FC21C19E6F0F601D30C3A7906
:181920001FB7C235193E1132741F3E8032751F78FE02CA9119CDBD19A2
:1819380032741FCDBD1932751FE640CA9119CDBD196FCDBD196722C7CA
:1819500019EB2A6C1FDB0BE602CA5519DB0C77231B7AB3C255192AC7D6
:18196800193A721FE60FFE0AC27919226E1FC39119EB2A6E1F7ABCC27C
:1819800087197DBBCA91193A751FE68FF62A32751F3A751FE60F327C69
:181998001F3A751FE6F0473A701FE60FB032751F2A7E1FF9E1D1C1F1D5
:1819B000C90000000000DB0B0FD8C3B119DB0BE602CABD19DB0CC900DE
:0219C80000001D
:141F6C000000000000000000000000000000000000B70000AA
:0000000000